{
  "_format": "hh-sol-artifact-1",
  "contractName": "CrowdFunding",
  "sourceName": "contracts/CrowdFunding.sol",
  "abi": [
    {
      "inputs": [
        {
          "internalType": "uint256",
          "name": "",
          "type": "uint256"
        }
      ],
      "name": "campaigns",
      "outputs": [
        {
          "internalType": "address",
          "name": "owner",
          "type": "address"
        },
        {
          "internalType": "string",
          "name": "title",
          "type": "string"
        },
        {
          "internalType": "string",
          "name": "description",
          "type": "string"
        },
        {
          "internalType": "uint256",
          "name": "deadline",
          "type": "uint256"
        },
        {
          "internalType": "uint256",
          "name": "amountCollected",
          "type": "uint256"
        },
        {
          "internalType": "string",
          "name": "image",
          "type": "string"
        },
        {
          "internalType": "uint256",
          "name": "target",
          "type": "uint256"
        }
      ],
      "stateMutability": "view",
      "type": "function"
    },
    {
      "inputs": [
        {
          "internalType": "address",
          "name": "_owner",
          "type": "address"
        },
        {
          "internalType": "string",
          "name": "_title",
          "type": "string"
        },
        {
          "internalType": "string",
          "name": "_description",
          "type": "string"
        },
        {
          "internalType": "uint256",
          "name": "_target",
          "type": "uint256"
        },
        {
          "internalType": "uint256",
          "name": "_deadline",
          "type": "uint256"
        },
        {
          "internalType": "string",
          "name": "_image",
          "type": "string"
        }
      ],
      "name": "createCampaign",
      "outputs": [
        {
          "internalType": "uint256",
          "name": "",
          "type": "uint256"
        }
      ],
      "stateMutability": "nonpayable",
      "type": "function"
    },
    {
      "inputs": [
        {
          "internalType": "uint256",
          "name": "_id",
          "type": "uint256"
        }
      ],
      "name": "donateToCampaign",
      "outputs": [],
      "stateMutability": "payable",
      "type": "function"
    },
    {
      "inputs": [],
      "name": "getCampaigns",
      "outputs": [
        {
          "components": [
            {
              "internalType": "address",
              "name": "owner",
              "type": "address"
            },
            {
              "internalType": "string",
              "name": "title",
              "type": "string"
            },
            {
              "internalType": "string",
              "name": "description",
              "type": "string"
            },
            {
              "internalType": "uint256",
              "name": "deadline",
              "type": "uint256"
            },
            {
              "internalType": "uint256",
              "name": "amountCollected",
              "type": "uint256"
            },
            {
              "internalType": "string",
              "name": "image",
              "type": "string"
            },
            {
              "internalType": "uint256",
              "name": "target",
              "type": "uint256"
            },
            {
              "internalType": "address[]",
              "name": "donators",
              "type": "address[]"
            },
            {
              "internalType": "uint256[]",
              "name": "donations",
              "type": "uint256[]"
            }
          ],
          "internalType": "struct CrowdFunding.Campaign[]",
          "name": "",
          "type": "tuple[]"
        }
      ],
      "stateMutability": "view",
      "type": "function"
    },
    {
      "inputs": [
        {
          "internalType": "uint256",
          "name": "_id",
          "type": "uint256"
        }
      ],
      "name": "getDonators",
      "outputs": [
        {
          "internalType": "address[]",
          "name": "",
          "type": "address[]"
        },
        {
          "internalType": "uint256[]",
          "name": "",
          "type": "uint256[]"
        }
      ],
      "stateMutability": "view",
      "type": "function"
    },
    {
      "inputs": [],
      "name": "numberOfCampaigns",
      "outputs": [
        {
          "internalType": "uint256",
          "name": "",
          "type": "uint256"
        }
      ],
      "stateMutability": "view",
      "type": "function"
    }
  ],
  "bytecode": "0x6080604052600060015534801561001557600080fd5b50610f2c806100256000396000f3fe6080604052600436106100555760003560e01c806307ca140d1461005a5780630fa91fa914610083578063141961bc146100b157806342a4fda8146100e45780639943e3a1146100f9578063a6b0363314610119575b600080fd5b34801561006657600080fd5b5061007060015481565b6040519081526020015b60405180910390f35b34801561008f57600080fd5b506100a361009e366004610a18565b61013b565b60405161007a929190610a31565b3480156100bd57600080fd5b506100d16100cc366004610a18565b61020a565b60405161007a9796959493929190610b02565b6100f76100f2366004610a18565b6103e7565b005b34801561010557600080fd5b50610070610114366004610c10565b6104ad565b34801561012557600080fd5b5061012e6105d2565b60405161007a9190610d3d565b600081815260208181526040918290206007810180548451818502810185019095528085526060948594929360080192909184918301828280156101a857602002820191906000526020600020905b81546001600160a01b0316815260019091019060200180831161018a575b50505050509150808054806020026020016040519081016040528092919081815260200182805480156101fa57602002820191906000526020600020905b8154815260200190600101908083116101e6575b5050505050905091509150915091565b600060208190529081526040902080546001820180546001600160a01b03909216929161023690610e4b565b80601f016020809104026020016040519081016040528092919081815260200182805461026290610e4b565b80156102af5780601f10610284576101008083540402835291602001916102af565b820191906000526020600020905b81548152906001019060200180831161029257829003601f168201915b5050505050908060020180546102c490610e4b565b80601f01602080910402602001604051908101604052809291908181526020018280546102f090610e4b565b801561033d5780601f106103125761010080835404028352916020019161033d565b820191906000526020600020905b81548152906001019060200180831161032057829003601f168201915b50505050509080600301549080600401549080600501805461035e90610e4b565b80601f016020809104026020016040519081016040528092919081815260200182805461038a90610e4b565b80156103d75780601f106103ac576101008083540402835291602001916103d7565b820191906000526020600020905b8154815290600101906020018083116103ba57829003601f168201915b5050505050908060060154905087565b600081815260208181526040808320600781018054600180820183559186528486200180546001600160a01b0319163317905560088201805491820181558552928420349301839055805491519293909290916001600160a01b03169084908381818185875af1925050503d806000811461047e576040519150601f19603f3d011682016040523d82523d6000602084013e610483565b606091505b5050905080156104a757828260040160008282546104a19190610e96565b90915550505b50505050565b6001546000908152602081905260408120600381015442116105335760405162461bcd60e51b815260206004820152603560248201527f54686520646561646c696e65206d75737420626520677265617465722074686160448201527406e2074686520626c6f636b2074696d657374616d7605c1b606482015260840160405180910390fd5b80546001600160a01b0319166001600160a01b038916178155865161056190600183019060208a019061097f565b508551610577906002830190602089019061097f565b506003810184905560006004820155825161059b906005830190602086019061097f565b5060068101859055600180549060006105b383610eae565b9190505550600180546105c69190610ec9565b98975050505050505050565b6060600060015467ffffffffffffffff8111156105f1576105f1610b6d565b60405190808252806020026020018201604052801561067a57816020015b61066760405180610120016040528060006001600160a01b0316815260200160608152602001606081526020016000815260200160008152602001606081526020016000815260200160608152602001606081525090565b81526020019060019003908161060f5790505b50905060005b60015481101561097957600081815260208181526040918290208251610120810190935280546001600160a01b03168352600181018054919392849290840191906106ca90610e4b565b80601f01602080910402602001604051908101604052809291908181526020018280546106f690610e4b565b80156107435780601f1061071857610100808354040283529160200191610743565b820191906000526020600020905b81548152906001019060200180831161072657829003601f168201915b5050505050815260200160028201805461075c90610e4b565b80601f016020809104026020016040519081016040528092919081815260200182805461078890610e4b565b80156107d55780601f106107aa576101008083540402835291602001916107d5565b820191906000526020600020905b8154815290600101906020018083116107b857829003601f168201915b50505050508152602001600382015481526020016004820154815260200160058201805461080290610e4b565b80601f016020809104026020016040519081016040528092919081815260200182805461082e90610e4b565b801561087b5780601f106108505761010080835404028352916020019161087b565b820191906000526020600020905b81548152906001019060200180831161085e57829003601f168201915b5050505050815260200160068201548152602001600782018054806020026020016040519081016040528092919081815260200182805480156108e757602002820191906000526020600020905b81546001600160a01b031681526001909101906020018083116108c9575b505050505081526020016008820180548060200260200160405190810160405280929190818152602001828054801561093f57602002820191906000526020600020905b81548152602001906001019080831161092b575b50505050508152505083838151811061095a5761095a610ee0565b602002602001018190525050808061097190610eae565b915050610680565b50919050565b82805461098b90610e4b565b90600052602060002090601f0160209004810192826109ad57600085556109f3565b82601f106109c657805160ff19168380011785556109f3565b828001600101855582156109f3579182015b828111156109f35782518255916020019190600101906109d8565b506109ff929150610a03565b5090565b5b808211156109ff5760008155600101610a04565b600060208284031215610a2a57600080fd5b5035919050565b604080825283519082018190526000906020906060840190828701845b82811015610a735781516001600160a01b031684529284019290840190600101610a4e565b5050508381038285015284518082528583019183019060005b81811015610aa857835183529284019291840191600101610a8c565b5090979650505050505050565b6000815180845260005b81811015610adb57602081850181015186830182015201610abf565b81811115610aed576000602083870101525b50601f01601f19169290920160200192915050565b6001600160a01b038816815260e060208201819052600090610b2690830189610ab5565b8281036040840152610b388189610ab5565b905086606084015285608084015282810360a0840152610b588186610ab5565b9150508260c083015298975050505050505050565b634e487b7160e01b600052604160045260246000fd5b600082601f830112610b9457600080fd5b813567ffffffffffffffff80821115610baf57610baf610b6d565b604051601f8301601f19908116603f01168101908282118183101715610bd757610bd7610b6d565b81604052838152866020858801011115610bf057600080fd5b836020870160208301376000602085830101528094505050505092915050565b60008060008060008060c08789031215610c2957600080fd5b86356001600160a01b0381168114610c4057600080fd5b9550602087013567ffffffffffffffff80821115610c5d57600080fd5b610c698a838b01610b83565b96506040890135915080821115610c7f57600080fd5b610c8b8a838b01610b83565b9550606089013594506080890135935060a0890135915080821115610caf57600080fd5b50610cbc89828a01610b83565b9150509295509295509295565b600081518084526020808501945080840160005b83811015610d025781516001600160a01b031687529582019590820190600101610cdd565b509495945050505050565b600081518084526020808501945080840160005b83811015610d0257815187529582019590820190600101610d21565b60006020808301818452808551808352604092508286019150828160051b87010184880160005b83811015610e3d57888303603f19018552815180516001600160a01b0316845261012088820151818a870152610d9c82870182610ab5565b9150508782015185820389870152610db48282610ab5565b9150506060808301518187015250608080830151818701525060a08083015186830382880152610de48382610ab5565b9250505060c080830151818701525060e08083015186830382880152610e0a8382610cc9565b925050506101008083015192508582038187015250610e298183610d0d565b968901969450505090860190600101610d64565b509098975050505050505050565b600181811c90821680610e5f57607f821691505b6020821081141561097957634e487b7160e01b600052602260045260246000fd5b634e487b7160e01b600052601160045260246000fd5b60008219821115610ea957610ea9610e80565b500190565b6000600019821415610ec257610ec2610e80565b5060010190565b600082821015610edb57610edb610e80565b500390565b634e487b7160e01b600052603260045260246000fdfea2646970667358221220202908195f164e1d4112c765c6eebdf2a16f6214671e278ac6a4981b5db943e164736f6c63430008090033",
  "linkReferences": {},
  "deployedLinkReferences": {}
}