{
  "_format": "hh-sol-artifact-1",
  "contractName": "CrowdFunding",
  "sourceName": "contracts/CrowdFunding.sol",
  "abi": [
    {
      "inputs": [
        {
          "internalType": "uint256",
          "name": "",
          "type": "uint256"
        }
      ],
      "name": "campaigns",
      "outputs": [
        {
          "internalType": "address",
          "name": "owner",
          "type": "address"
        },
        {
          "internalType": "string",
          "name": "title",
          "type": "string"
        },
        {
          "internalType": "string",
          "name": "description",
          "type": "string"
        },
        {
          "internalType": "uint256",
          "name": "deadline",
          "type": "uint256"
        },
        {
          "internalType": "uint256",
          "name": "amountCollected",
          "type": "uint256"
        },
        {
          "internalType": "string",
          "name": "image",
          "type": "string"
        },
        {
          "internalType": "uint256",
          "name": "target",
          "type": "uint256"
        }
      ],
      "stateMutability": "view",
      "type": "function"
    },
    {
      "inputs": [
        {
          "internalType": "address",
          "name": "_owner",
          "type": "address"
        },
        {
          "internalType": "string",
          "name": "_title",
          "type": "string"
        },
        {
          "internalType": "string",
          "name": "_description",
          "type": "string"
        },
        {
          "internalType": "uint256",
          "name": "_target",
          "type": "uint256"
        },
        {
          "internalType": "uint256",
          "name": "_deadline",
          "type": "uint256"
        },
        {
          "internalType": "string",
          "name": "_image",
          "type": "string"
        }
      ],
      "name": "createCampaign",
      "outputs": [
        {
          "internalType": "uint256",
          "name": "",
          "type": "uint256"
        }
      ],
      "stateMutability": "nonpayable",
      "type": "function"
    },
    {
      "inputs": [
        {
          "internalType": "uint256",
          "name": "_id",
          "type": "uint256"
        }
      ],
      "name": "donateToCampaign",
      "outputs": [],
      "stateMutability": "payable",
      "type": "function"
    },
    {
      "inputs": [],
      "name": "getCampaigns",
      "outputs": [
        {
          "components": [
            {
              "internalType": "address",
              "name": "owner",
              "type": "address"
            },
            {
              "internalType": "string",
              "name": "title",
              "type": "string"
            },
            {
              "internalType": "string",
              "name": "description",
              "type": "string"
            },
            {
              "internalType": "uint256",
              "name": "deadline",
              "type": "uint256"
            },
            {
              "internalType": "uint256",
              "name": "amountCollected",
              "type": "uint256"
            },
            {
              "internalType": "string",
              "name": "image",
              "type": "string"
            },
            {
              "internalType": "uint256",
              "name": "target",
              "type": "uint256"
            },
            {
              "internalType": "address[]",
              "name": "donators",
              "type": "address[]"
            },
            {
              "internalType": "uint256[]",
              "name": "donations",
              "type": "uint256[]"
            }
          ],
          "internalType": "struct CrowdFunding.Campaign[]",
          "name": "",
          "type": "tuple[]"
        }
      ],
      "stateMutability": "view",
      "type": "function"
    },
    {
      "inputs": [
        {
          "internalType": "uint256",
          "name": "_id",
          "type": "uint256"
        }
      ],
      "name": "getDonators",
      "outputs": [
        {
          "internalType": "address[]",
          "name": "",
          "type": "address[]"
        },
        {
          "internalType": "uint256[]",
          "name": "",
          "type": "uint256[]"
        }
      ],
      "stateMutability": "view",
      "type": "function"
    },
    {
      "inputs": [],
      "name": "numberOfCampaigns",
      "outputs": [
        {
          "internalType": "uint256",
          "name": "",
          "type": "uint256"
        }
      ],
      "stateMutability": "view",
      "type": "function"
    }
  ],
  "bytecode": "0x6080604052600060015534801561001557600080fd5b50610f80806100256000396000f3fe6080604052600436106100555760003560e01c806307ca140d1461005a5780630fa91fa914610083578063141961bc146100b157806342a4fda8146100e45780639943e3a1146100f9578063a6b0363314610119575b600080fd5b34801561006657600080fd5b5061007060015481565b6040519081526020015b60405180910390f35b34801561008f57600080fd5b506100a361009e36600461096a565b61013b565b60405161007a929190610983565b3480156100bd57600080fd5b506100d16100cc36600461096a565b61020a565b60405161007a9796959493929190610a4d565b6100f76100f236600461096a565b6103e7565b005b34801561010557600080fd5b50610070610114366004610b5b565b6104ad565b34801561012557600080fd5b5061012e6105bd565b60405161007a9190610c88565b600081815260208181526040918290206007810180548451818502810185019095528085526060948594929360080192909184918301828280156101a857602002820191906000526020600020905b81546001600160a01b0316815260019091019060200180831161018a575b50505050509150808054806020026020016040519081016040528092919081815260200182805480156101fa57602002820191906000526020600020905b8154815260200190600101908083116101e6575b5050505050905091509150915091565b600060208190529081526040902080546001820180546001600160a01b03909216929161023690610d96565b80601f016020809104026020016040519081016040528092919081815260200182805461026290610d96565b80156102af5780601f10610284576101008083540402835291602001916102af565b820191906000526020600020905b81548152906001019060200180831161029257829003601f168201915b5050505050908060020180546102c490610d96565b80601f01602080910402602001604051908101604052809291908181526020018280546102f090610d96565b801561033d5780601f106103125761010080835404028352916020019161033d565b820191906000526020600020905b81548152906001019060200180831161032057829003601f168201915b50505050509080600301549080600401549080600501805461035e90610d96565b80601f016020809104026020016040519081016040528092919081815260200182805461038a90610d96565b80156103d75780601f106103ac576101008083540402835291602001916103d7565b820191906000526020600020905b8154815290600101906020018083116103ba57829003601f168201915b5050505050908060060154905087565b600081815260208181526040808320600781018054600180820183559186528486200180546001600160a01b0319163317905560088201805491820181558552928420349301839055805491519293909290916001600160a01b03169084908381818185875af1925050503d806000811461047e576040519150601f19603f3d011682016040523d82523d6000602084013e610483565b606091505b5050905080156104a757828260040160008282546104a19190610de0565b90915550505b50505050565b6001546000908152602081905260408120600381015442116105335760405162461bcd60e51b815260206004820152603560248201527f54686520646561646c696e65206d75737420626520677265617465722074686160448201527406e2074686520626c6f636b2074696d657374616d7605c1b606482015260840160405180910390fd5b80546001600160a01b0319166001600160a01b0389161781556001810161055a8882610e48565b50600281016105698782610e48565b506003810184905560006004820155600581016105868482610e48565b50600681018590556001805490600061059e83610f08565b9190505550600180546105b19190610f21565b98975050505050505050565b6060600060015467ffffffffffffffff8111156105dc576105dc610ab8565b60405190808252806020026020018201604052801561066557816020015b61065260405180610120016040528060006001600160a01b0316815260200160608152602001606081526020016000815260200160008152602001606081526020016000815260200160608152602001606081525090565b8152602001906001900390816105fa5790505b50905060005b60015481101561096457600081815260208181526040918290208251610120810190935280546001600160a01b03168352600181018054919392849290840191906106b590610d96565b80601f01602080910402602001604051908101604052809291908181526020018280546106e190610d96565b801561072e5780601f106107035761010080835404028352916020019161072e565b820191906000526020600020905b81548152906001019060200180831161071157829003601f168201915b5050505050815260200160028201805461074790610d96565b80601f016020809104026020016040519081016040528092919081815260200182805461077390610d96565b80156107c05780601f10610795576101008083540402835291602001916107c0565b820191906000526020600020905b8154815290600101906020018083116107a357829003601f168201915b5050505050815260200160038201548152602001600482015481526020016005820180546107ed90610d96565b80601f016020809104026020016040519081016040528092919081815260200182805461081990610d96565b80156108665780601f1061083b57610100808354040283529160200191610866565b820191906000526020600020905b81548152906001019060200180831161084957829003601f168201915b5050505050815260200160068201548152602001600782018054806020026020016040519081016040528092919081815260200182805480156108d257602002820191906000526020600020905b81546001600160a01b031681526001909101906020018083116108b4575b505050505081526020016008820180548060200260200160405190810160405280929190818152602001828054801561092a57602002820191906000526020600020905b815481526020019060010190808311610916575b50505050508152505083838151811061094557610945610f34565b602002602001018190525050808061095c90610f08565b91505061066b565b50919050565b60006020828403121561097c57600080fd5b5035919050565b604080825283519082018190526000906020906060840190828701845b828110156109c55781516001600160a01b0316845292840192908401906001016109a0565b5050508381038285015284518082528583019183019060005b818110156109fa578351835292840192918401916001016109de565b5090979650505050505050565b6000815180845260005b81811015610a2d57602081850181015186830182015201610a11565b506000602082860101526020601f19601f83011685010191505092915050565b6001600160a01b038816815260e060208201819052600090610a7190830189610a07565b8281036040840152610a838189610a07565b905086606084015285608084015282810360a0840152610aa38186610a07565b9150508260c083015298975050505050505050565b634e487b7160e01b600052604160045260246000fd5b600082601f830112610adf57600080fd5b813567ffffffffffffffff80821115610afa57610afa610ab8565b604051601f8301601f19908116603f01168101908282118183101715610b2257610b22610ab8565b81604052838152866020858801011115610b3b57600080fd5b836020870160208301376000602085830101528094505050505092915050565b60008060008060008060c08789031215610b7457600080fd5b86356001600160a01b0381168114610b8b57600080fd5b9550602087013567ffffffffffffffff80821115610ba857600080fd5b610bb48a838b01610ace565b96506040890135915080821115610bca57600080fd5b610bd68a838b01610ace565b9550606089013594506080890135935060a0890135915080821115610bfa57600080fd5b50610c0789828a01610ace565b9150509295509295509295565b600081518084526020808501945080840160005b83811015610c4d5781516001600160a01b031687529582019590820190600101610c28565b509495945050505050565b600081518084526020808501945080840160005b83811015610c4d57815187529582019590820190600101610c6c565b60006020808301818452808551808352604092508286019150828160051b87010184880160005b83811015610d8857888303603f19018552815180516001600160a01b0316845261012088820151818a870152610ce782870182610a07565b9150508782015185820389870152610cff8282610a07565b9150506060808301518187015250608080830151818701525060a08083015186830382880152610d2f8382610a07565b9250505060c080830151818701525060e08083015186830382880152610d558382610c14565b925050506101008083015192508582038187015250610d748183610c58565b968901969450505090860190600101610caf565b509098975050505050505050565b600181811c90821680610daa57607f821691505b60208210810361096457634e487b7160e01b600052602260045260246000fd5b634e487b7160e01b600052601160045260246000fd5b80820180821115610df357610df3610dca565b92915050565b601f821115610e4357600081815260208120601f850160051c81016020861015610e205750805b601f850160051c820191505b81811015610e3f57828155600101610e2c565b5050505b505050565b815167ffffffffffffffff811115610e6257610e62610ab8565b610e7681610e708454610d96565b84610df9565b602080601f831160018114610eab5760008415610e935750858301515b600019600386901b1c1916600185901b178555610e3f565b600085815260208120601f198616915b82811015610eda57888601518255948401946001909101908401610ebb565b5085821015610ef85787850151600019600388901b60f8161c191681555b5050505050600190811b01905550565b600060018201610f1a57610f1a610dca565b5060010190565b81810381811115610df357610df3610dca565b634e487b7160e01b600052603260045260246000fdfea2646970667358221220eb6c85b32652ebaa6d00654e91dde1f1cbd8fd0c6ebee0503120dfaf76fb375864736f6c63430008110033",
  "linkReferences": {},
  "deployedLinkReferences": {}
}